:020000040800F2
:10000000C83C00209D190008A1020008A3020008B6
:10001000A7020008AB020008AF02000800000000C1
:10002000000000000000000000000000B302000813
:10003000B502000800000000D3B50008993500089B
:10004000B7190008B7190008B7190008B719000850
:10005000B7190008B7190008B7190008B719000840
:10006000B7190008B7190008B7190008B719000830
:10007000B7190008B7190008B7190008B719000820
:10008000B7190008B7190008B71900085D10000873
:1000900081100008B7190008B7190008B71900083F
:1000A000B7190008B7190008B7190008B7190008F0
:1000B000B7190008B7190008B7190008B7190008E0
:1000C000B7190008B7190008B7190008B7190008D0
:1000D000B719000899140008B7190008631600083A
:1000E000B7190008B7190008B7190008B7190008B0
:1000F000B7190008B7190008B7190008B7190008A0
:10010000B7190008B7190008B7190008B71900088F
:10011000B7190008B7190008B7190008B71900087F
:10012000B7190008B7190008B7190008B71900086F
:10013000B7190008B7190008B7190008B71900085F
:10014000B7190008B7190008B7190008B71900084F
:10015000B7190008B7190008B7190008B71900083F
:10016000B7190008B7190008B7190008B71900082F
:10017000B7190008B7190008B7190008B71900081F
:10018000B7190008B719000800F002F800F05CF891
:100190000AA090E8000C82448344AAF10107DA45E2
:1001A00001D100F051F8AFF2090EBAE80F0013F0D8
:1001B000010F18BFFB1A43F001031847E4C2000007
:1001C00004C300000A444FF0000C10F8013B13F088
:1001D000070408BF10F8014B1D1108BF10F8015BA0
:1001E000641E05D010F8016B641E01F8016BF9D193
:1001F00013F0080F1EBF10F8014BAD1C0C1B09D1EA
:100200006D1E58BF01F801CBFAD505E014F8016B5B
:1002100001F8016B6D1EF9D59142D6D370470000ED
:100220000023002400250026103A28BF78C1FBD8FF
:10023000520728BF30C148BF0B6070471FB50BF095
:1002400047FB1FBD10B510BD0BF076F91146FFF747
:10025000F5FF00F008F80BF094F903B4FFF7F2FF94
:1002600003BC03F03FFA08B50024A82003F0AEF960
:10027000684605F0BDF800BF00BF03F035FC04463A
:1002800000BF00BF00F0BAFC00BF00BF204603F073
:100290002FFC00BF00BF684605F0BEFA00BFFEE7B6
:1002A000704700BFFEE700BFFEE700BFFEE700BFEC
:1002B000FEE77047704700000CB5002001900090E9
:1002C0007648006840F480307449086000BF734885
:1002D000006800F4003000900198401C01900098E4
:1002E00018B90198B0F5A04FF1D16C48006800F43E
:1002F000003010B10120009001E000200090009833
:10030000012846D165484030006840F0805063497C
:10031000403108606248006840F44040604908602D
:100320005E48083000685D4908310860084600688A
:1003300040F4004008600846006840F4A05008609F
:100340005848091F0860081F006840F08070091FA6
:10035000086000BF5148006800F000700028F9D024
:1003600040F20570504908604C480830006820F0A1
:1003700003004A49083108600846006840F002005E
:10038000086000BF45480830006800F00C000828ED
:10039000F8D10CBD10B54548006840F470004349E1
:1003A00008603E48006840F001003C4908600020B9
:1003B0003A4908310860394800683D4908403749E2
:1003C00008603C48091D0860081F006820F4802070
:1003D000091F0860002031490C310860FFF76CFFED
:1003E0004FF0006031498039086010BD70B50020C1
:1003F0000022022300240221284D08352D6805F033
:100400000C0020B1042806D0082834D107E02A4D7A
:100410002A4E356033E02A4D284E35602FE01F4DBF
:100420002D1D2D68C5F380541C4D2D1D2D6805F024
:100430003F0154B1224DB5FBF1F5184E361D36681B
:10044000C6F3881605FB06F209E01B4DB5FBF1F576
:10045000124E361D3668C6F3881605FB06F20F4DA0
:100460002D1D2D68C5F301456D1C6B00B2FBF3F526
:10047000124E356003E0104D104E356000BF00BFD6
:10048000064D08352D68C5F303150E4E705D0B4DF6
:100490002D68C540094E356070BD0000003802402F
:1004A0000070004019544007003C024088ED00E015
:1004B000FFFFF6FE103000240024F40000000020AE
:1004C00040787D01040000202DED048B84B00020D5
:1004D0000190029000BFB3E0F74800780A287CDA68
:1004E000F5480078401CF4490870F4484089A0F5AC
:1004F000806006B2F1480089A0F5806005B2EF493E
:10050000B1F90410A1F580600BF0CDF841EC190BA6
:100510009FEDEB0B53EC102B0BF0DCF841EC180BC0
:100520000BF092F804B228190BF0BDF841EC190B4E
:100530009FEDE30B53EC102B0BF0CCF841EC180BB8
:100540000BF082F800B2ADF804006942081B0BF012
:10055000AAF841EC190B9FEDDA0B53EC102B0BF0C2
:10056000B9F841EC180B0BF06FF800B2ADF80600CB
:10057000301B0BF098F841EC190B9FEDD10B53ECAD
:10058000102B0BF0A7F841EC180B0BF05DF800B244
:10059000ADF8080030190BF086F841EC190B9FED0F
:1005A000C80B53EC102B0BF095F841EC180B0BF02B
:1005B0004BF800B2ADF80A00BDF9043041F28832C0
:1005C0000121002000F072FDBDF9063041F28832B1
:1005D0000221002000F06AFD00E010E0BDF90830C3
:1005E00041F288320321002000F060FDBDF90A309D
:1005F00041F288320421002000F058FD1BE0002366
:1006000041F288320121184600F050FD002341F2EA
:1006100088320221184600F049FD002341F2883259
:100620000321184600F042FD002341F288320421E4
:10063000184600F03BFD03AA08210D2009F01CFE1E
:100640004AE7B0EE401AB6EE000A21EE000AF0EEDC
:10065000401AF0EE410A10EE900A9B49A1EB6000AF
:1006600000EE900A21EEA02AB7EE080A02EE600A18
:1006700020EE200AF0EE400A21EEA02AB7EE080A8A
:1006800002EE600A20EE200AF0EE400A21EEA02AD7
:10069000B7EE080A02EE600A20EE200AF0EE400AE9
:1006A00021EE200A704770B52DED068B05460C46ED
:1006B0001646F0EE408A9FED850AB0EE40AAB3EEF2
:1006C000000AB0EE409A9FED810AB0EE408A804861
:1006D0000078002863D101207D4908709FED7B0AD6
:1006E000B0EE408A9FED790A7A4880ED000A00203A
:1006F000288020803080784890ED000ADFED770A6E
:1007000020EE200ADFED760A80EE201AF0EE419A04
:10071000B0EE690A0AF028FE724880ED000A6E48C1
:1007200090ED000ADFED6D0A20EE200ADFED6C0A85
:1007300080EE201AF0EE419AB0EE690A0AF0A8FDA8
:10074000694880ED000AB6EE000A28EE800A674884
:1007500080ED000A9FED5D0A654880ED000A65485E
:1007600090ED000A6448D0ED000A30EE600A63485C
:1007700080ED010A80ED000A614880ED000A6148C1
:1007800090ED000A6048D0ED000A30EE600A5F4844
:1007900080ED010A80ED000A5D4880ED000A5548B1
:1007A00090ED000A5448D0ED000A30EE600A53483C
:1007B00080ED010A90ED010AD0ED000A30EE600AEA
:1007C000544880ED000A90ED000A20EE000A80ED0A
:1007D000000A90ED000AB0EE408A4A4890ED000A07
:1007E0004948D0ED000A30EE600A484880ED010A21
:1007F00090ED010AD0ED000A30EE600A454880ED28
:10080000000A90ED000A20EE000A80ED000A90ED4B
:10081000000A38EE000AB0EE408AB0EE480AFFF750
:1008200010FFB0EE408A2B4890ED000A30EE080A27
:1008300080ED000A90ED000A2C48D0ED000AB4EEDD
:10084000E00AF1EE10FA79D2B3EE0A0AB4EEC08AE9
:10085000F1EE10FA04DB9FED1D0AB0EE409AA5E020
:10086000B5EEC09AF1EE10FA67D09FED2B0A28EE94
:10087000000A284880ED000A90ED000A20EE000AE8
:1008800080ED000AD0ED000A9FED241A60EE810A87
:10089000B0EE600A0AF068FDDFED210A20EE200AC2
:1008A000B0EE409AB3EE000AB4EEC09AF1EE10FA40
:1008B00039D2B3EE000A38E0480000208E1A00203A
:1008C000000000000000E03F865A375F0000000093
:1008D000140000204000002068000020560E49400F
:1008E0000000344334000020380000204400002081
:1008F0003C00002060000020700000201C00002050
:10090000300000205C0000206C000020240000204B
:100910002C000020180000202DB21D3DC3F54840DA
:100920000080F7430AE0B0EE490AB0EE409A314841
:1009300090ED000A304880ED000A37E02E4890ED37
:10094000000A38EEC00A2B48D0ED000AB4EEE00AE7
:10095000F1EE10FA2AD21FED100A28EE000A2748FD
:1009600080ED000A90ED000A20EE000A80ED000AFA
:10097000D0ED000A1FED171A60EE810AB0EE600A92
:100980000AF0F2FC5FED1A0A20EE600AB0EE409A1F
:10099000BBEE000AB4EEC09AF1EE10FA02DDBBEE37
:1009A000000A01E0B0EE490AB0EE409AB0EE080A43
:1009B00038EEC00A0F48D0ED000AB4EEE00AF1EEBE
:1009C00010FA03D200202080288010E02188BDEE9C
:1009D000C90A10EE100A084400B22080B4F90000E1
:1009E000002801DA002001E0B4F900002080BDEC0D
:1009F000068B70BD400000203C0000201800002045
:100A000008B500BF74E08B4800688B490840002897
:100A100069D04FF4001087490831086000208749E9
:100A20000870874800788649497840EA0120C0F379
:100A30000A008449888082484078C01080498978BB
:100A400040EA4110C0F30A007E49C8807C488078A3
:100A500080117B49C97840EA81007949097940EAE7
:100A60008120C0F30A007749088175480079401059
:100A70007349497940EAC110C0F30A0071494881BD
:100A80006F4840790011800808706D484079C0F3C4
:100A9000011048706A4880796949C97940EA0120A3
:100AA00000B2684988816648007A6549497A40EA17
:100AB000012000B26349C8816148807A6049C97ADF
:100AC00040EA012000B25F4908825D48007B8870DF
:100AD0005B48407BC8705A48807B5949C97B40EAD3
:100AE0000120584948826A460821072009F0C4FBC2
:100AF00089E738B50446002500BF4FF4A06000F038
:100B00006DFF00F0C1FE00F00DFA00F04DFD00F0A9
:100B1000C5F806E000F047FE054641F2883002F0D5
:100B200084FD002DF6D06946474809F0A1F838BD8C
:100B300030B58BB00446002500BF02F09DFE0AA828
:100B400007F097FD00BF00BF02F0CEFF054600BFD3
:100B500000BF0AA8032100220592CDE906210890D2
:100B6000104680210C22394BCDE90132CDE903102A
:100B700003200023AFF2850235A10090324808F02F
:100B8000C4F80AA8032100220592CDE906210890A5
:100B9000104680210C22314BCDE90132CDE9031002
:100BA00004200023AFF2A7122DA10090304808F0D6
:100BB000ACF80AA8032100220592CDE9062108908D
:100BC00010464FF4806166222A4BCDE90132CDE90F
:100BD000031004200023284A28A10090294808F087
:100BE00094F80AA9284809F043F800BF00BF284636
:100BF00002F07EFF00BF00BF0BB030BD00B58BB070
:100C00000AA8032100220592CDE90621089010468A
:100C100080210C221D4BCDE90132CDE903100220C9
:100C20000023AFF2F3021AA10090174808F06DF804
:100C30000BB000BD0064024000802010480000207E
:100C40007C1A00208E1A002018040020DC040020EA
:100C5000496E6974207461736B000000A007002066
:100C600054656C654374726C207461736B00000092
:100C7000DC060020640A0020C9040008434D2074EB
:100C800061736B00A00900205401002018020020AD
:100C90007374617274207461736B00001CB5012160
:100CA000102002F0FBF80F20009001208DF80400C6
:100CB00002208DF8050000208DF8060069461D48C9
:100CC00001F04EFE0F211B4801F0C8FE702000907D
:100CD00000208DF8040002208DF805008DF8070033
:100CE0006946144801F03CFE4FF40050009000208B
:100CF0008DF8040002208DF805008DF80700694684
:100D00000D4801F02DFE4FF40070009001208DF889
:100D1000040002208DF8050000208DF806006946C9
:100D2000064801F01DFE4FF40071044801F096FEE4
:100D30001CBD0000001002400008024000040240F8
:100D400010B5002106E0282200BF131EA2F1010207
:100D5000FBD1491C8142F6D310BD2DE9F04186B08C
:100D600005460E4690461C460A2700208DF80C00CA
:100D70008DF80D0008208DF80E00072D06DC0F2ED3
:100D800004DC47EA052747EA061702E006B0BDE89B
:100D9000F08114B1012C00D0002401978DF80F8050
:100DA0008DF8104055218DF811108DF812108DF826
:100DB00013108DF814108DF815108DF816100020F2
:100DC000F849087001A9F84801F00AF80020F7492D
:100DD00008600CE00120FFF7B3FFF4480068401CF6
:100DE000F249086008460068642800D903E0ED482D
:100DF00000780028EED000BF00BFC7E7F0B585B08F
:100E000004460D461746012600208DF808008DF88F
:100E1000090008208DF80A00072C06DC0F2D04DCE1
:100E200046EA042646EA051601E005B0F0BD009644
:100E30008DF80B7055218DF80C108DF80D108DF874
:100E40000E108DF80F108DF810108DF811108DF810
:100E500012100020D34908706946D34800F0C0FF43
:100E60000020D24908600CE00120FFF769FFCF485D
:100E70000068401CCD49086008460068642800D915
:100E800003E0C84800780028EED000BF00BFCCE7E0
:100E900070B586B004460D46002600208DF80C0083
:100EA0008DF80D0008208DF80E00072C06DC0F2DA4
:100EB00004DC46EA042646EA051601E006B070BDE9
:100EC000019655208DF80F0055218DF810108DF8E2
:100ED00011108DF812108DF813108DF814108DF874
:100EE00015108DF816100020AE49087001A9AE4803
:100EF00000F076FF0020AD4908600CE00120FFF70C
:100F00001FFFAA480068401CA849086008460068FE
:100F1000642800D903E0A34800780028EED000BF81
:100F200000BFCBE700B58BB00121480601F0FFFF01
:100F300008A800F0E7FE00208DF826008DF82700B5
:100F40008DF828008DF829008DF82A0001208DF8F1
:100F50002B0000208DF822008DF8230008208DF84A
:100F6000240003208DF82500ADF8200000208DF826
:100F70001A008DF81B0001208DF81C000020ADF830
:100F80001000ADF81200ADF81400ADF81600ADF881
:100F9000180001208DF81D000121082001F07EFFBE
:100FA00009220021824801F066FD092201218048C2
:100FB00001F061FD0320029002208DF80C0002A9CF
:100FC0007B4801F0CDFC13208DF8040001208DF842
:100FD000050000208DF8060001208DF8070001A80B
:100FE00000F001FD14208DF8040000208DF80500AC
:100FF0008DF8060001208DF8070001A800F0F3FC31
:10100000694800F05BFD08A9674800F070FD04A87E
:1010100000F0F7FD01221146634801F0F1F80122CA
:101020000221614801F0ECF800210846FFF730FF8B
:10103000604802F0FAFA032200210846FFF7DEFEBC
:101040005C4802F0F2FA00231A4619461846FFF7E8
:1010500084FE584802F0E9FA0BB000BD10B504F068
:101060004EFA0121504801F033F930B101214E48C8
:1010700001F0C9F901204B49087004F051FA10BD84
:1010800000B585B004F03BFA0221474801F020F991
:1010900040B10221444801F0B6F96A4600214248B5
:1010A00000F093FF04F03CFA05B000BD2DE9F041DB
:1010B00086B005460E4614461F464FF00408002031
:1010C0008DF80C008DF80D0008208DF80E00072D0E
:1010D00006DC0F2E04DC48EA052848EA061802E080
:1010E00006B0BDE8F081CDF8048041F2883084423A
:1010F00001DD044603E03048844200DA0446002C57
:1011000001DA604204B2200A8DF80F008DF8104019
:10111000390A8DF811108DF8127055218DF81310C1
:101120008DF814108DF815108DF8161000201D493B
:10113000087001A91C4800F053FE00201B490860FC
:101140000CE00120FFF7FCFD18480068401C17491F
:10115000086008460068642800D903E01148007858
:101160000028EED000BF00BFBAE72DE9F04385B0FC
:101170000746884614461D460C9E4FF0060900207F
:101180008DF808008DF8090008208DF80A00072F57
:1011900014DCB8F10F0F11DC49EA072949EA0819F4
:1011A0000FE0000050000020006400404C000020D0
:1011B000000C024020A1070078ECFFFF05B0BDE85D
:1011C000F083CDF8009041F28830844201DD04467E
:1011D00003E07E48844200DA0446002C01DA6042D3
:1011E00004B2002D01DA684205B2200A8DF80B0026
:1011F000E1B28DF80C10290A8DF80D10E9B28DF8C6
:101200000E10310E8DF80F10310C8DF81010310AC0
:101210008DF81110F1B28DF8121000206C49087091
:1012200069466C4800F0DCFD00206B4908600CE06A
:101230000120FFF785FD68480068401C664908608A
:1012400008460068642800D903E061480078002857
:10125000EED000BF00BFB1E72DE9F04186B00646F1
:101260000F4614461D464FF0050800208DF80C006F
:101270008DF80D0008208DF80E00072E06DC0F2FCC
:1012800004DC48EA062848EA071802E006B0BDE890
:10129000F081CDF8048041F28830844201DD0446BB
:1012A00003E04A48844200DA0446002C05DA201E96
:1012B00001DB014600E041420CB2200A8DF80F002C
:1012C0008DF8104055218DF811108DF81210290E4F
:1012D0008DF81310290C8DF81410290A8DF81510AB
:1012E0008DF8165000203A49087001A9394800F0DD
:1012F00077FD0020384908600CE00120FFF720FD51
:1013000035480068401C3449086008460068642875
:1013100000D903E02E4800780028EED000BF00BFBF
:10132000B4E710B500210846FFF7B2FD2B4802F0E4
:101330007CF9032201210020FFF760FD0322022136
:101340000020FFF75BFD032211460020FFF756FD4A
:10135000032204210020FFF751FD05221146002041
:10136000FFF74CFD052206210020FFF747FD1B4833
:1013700002F05BF900231A4601211846FFF7EDFC45
:1013800000231A4602211846FFF7E7FC00231A46FD
:1013900003211846FFF7E1FC00231A4604211846F2
:1013A000FFF7DBFC00230A2205211846FFF7D5FCD6
:1013B000C82002F03AF900230A2206211846FFF756
:1013C000CCFC064802F031F910BD000078ECFFFFBC
:1013D00050000020006400404C00002020A10700C5
:1013E00000B587B00121084601F058FD0121102009
:1013F00001F0AEFD07220921624801F03CFB072203
:101400000A21604801F037FB4FF4C06001900220D0
:101410008DF808008DF8090000208DF80A000120E1
:101420008DF80B0001A9574801F09AFA25208DF894
:10143000000001208DF801008DF802008DF80300F6
:10144000684600F0D0FA504801F07CFE4FF4E130DD
:1014500003900020ADF81000ADF812004FF480604A
:10146000ADF814000C20ADF816000020ADF81800FF
:1014700003A9454801F0CDFE0121434801F051FF89
:10148000012240F22551404802F001F840213E4837
:1014900002F02FF807B000BD10B504F030F840F2AC
:1014A0002551394802F02EF8002868D040F2255125
:1014B000354802F062F8344801F062FF33490870A1
:1014C00033480078062851D2DFE800F003111B25CD
:1014D0002F392E4800780A2805D12D480078401C65
:1014E0002B49087002E000202949087042E0274893
:1014F00000782849087026480078401C2449087064
:1015000038E0224800782349487021480078401C80
:101510001F4908702EE01D4800781E4988701C483D
:101520000078401C1A49087024E0184800781949CE
:10153000C87017480078401C154908701AE0134815
:1015400000780D280ED1134800781349087011480F
:101550004078124908700F488078114908700020BF
:101560001049087000200A49087003E0002008496B
:10157000087000BF00BF0A21034801F0FDFE03F020
:10158000CFFF10BD000002400010014056000020B7
:101590005500002057000020540000205200002079
:1015A000530000205100002000B587B00121022027
:1015B00001F074FC0121880401F0B9FC07220A2122
:1015C000A04801F058FA07220B219E4801F053FA77
:1015D0004FF44060019002208DF808008DF809005A
:1015E00000208DF80A0001208DF80B0001A9954814
:1015F00001F0B6F927208DF8000000208DF80100D9
:101600008DF8020001208DF80300684600F0EBF928
:101610008D4801F097FD4FF4E13003900020ADF8C4
:101620001000ADF812004FF48060ADF814000420F3
:10163000ADF816000020ADF8180003A9824801F0AB
:10164000E8FD0121804801F06CFE012240F22551A5
:101650007D4801F01CFF40217B4801F04AFF07B0A4
:1016600000BD10B503F04BFF40F22551764801F064
:1016700049FF00287ED040F22551734801F07DFFDC
:10168000714801F07DFE71490870714800780528A5
:1016900071D2DFE800F00311263D4B006B48007863
:1016A0000D2805D16A480078401C6949087002E09D
:1016B00000206749087072E0644800780A2808D161
:1016C00000206449087062480078401C6049087036
:1016D00006E05E4800780D2802D000205C490870C2
:1016E0005DE05A4800785C495A4A12788854594853
:1016F0000078401C5749087008460078182806DB17
:101700000020087052480078401C5149087046E09B
:101710004E4800780A2805D14D480078401C4C49B5
:10172000087002E000204A49087038E04748007815
:101730000D282CD149480078401CC0B24749087098
:10174000052809DD002008704548006808B9012017
:1017500000E00020424908603F4890ED000A4148FF
:1017600080ED000A3C4890ED030A3F4880ED000AF6
:10177000394801E014E00EE090ED040A3B4880EDAA
:10178000000A354890ED050A394880ED000A00202E
:101790002F49087003E000202D49087000BF00BFEA
:1017A00003F0BEFE10BD33480078FA282DDA2B482E
:1017B000007840BB0120294908702F4890ED000AAD
:1017C0002948D0ED000A30EE200A2B4880ED000AAF
:1017D0002A4890ED000A2548D0ED000A30EE200A94
:1017E000264880ED000A264890ED000A2048D0EDFA
:1017F000000A30EE200A224880ED000A1D480078D9
:10180000401C1C490870002070471B4890ED000ADE
:10181000DFED1C0A80EE201A80ED001A174890EDCB
:10182000000ADFED180A80EE201A80ED001A144835
:1018300090ED000ADFED130A80EE201A80ED001A09
:101840000120E1E700040240004800407A00002047
:101850007B0000207C000020641A0020790000201A
:10186000A4824042680000205C000020600000204C
:1018700064000020780000206C0000207000002030
:101880007400002000007A4300B597B001213D4864
:1018900001F004FB0121202001F05AFB082207215E
:1018A000394801F0E8F88020119002208DF84800B6
:1018B00003208DF8490000208DF84B0011A9324813
:1018C00001F04EF847208DF8400000208DF84100CF
:1018D00001208DF842008DF8430010A800F083F835
:1018E0002A4801F02FFC2A4813900020ADF8500040
:1018F000ADF852004FF48060ADF854000420ADF80C
:1019000056000020ADF8580013A9204801F081FCD2
:10191000204800F0CBFD4FF0206001901B48001DD7
:1019200002901D4803900020049012200590002092
:1019300006904FF4806007900020089009904FF4C3
:1019400080700A904FF440300B9000200C900D9066
:101950000E900F9001A90F4800F04AFE01210D489A
:1019600000F080FE01224021084801F087FD01219E
:10197000064801F0D6FC0121064800F073FE17B0BE
:1019800000BD0000040040000008024000140140B7
:10199000A0860100406402407C1A0020094880476C
:1019A00009480047FEE7FEE7FEE7FEE7FEE7FEE741
:1019B000FEE7FEE7FEE7FEE704480549054A064B59
:1019C000704700009503000889010008C836002010
:1019D000C83C0020C8380020C838002032490143E4
:1019E000324A1160704770B5002100230F22C4787D
:1019F0001CB32E4C246804F4E064C4F5E064C4F322
:101A00000721C1F10404E3B20A4144789C40E1B2E9
:101A10008478144021430C07210E254C057861552C
:101A2000047804F01F050124AC4005786D11AD0069
:101A300005F1E025C5F8004109E0047804F01F0530
:101A40000124AC401B4D0678761145F8264070BD48
:101A5000194A0A400243154B1B1F1A60704739B1DF
:101A6000124A121D12680243104B1B1D1A6006E039
:101A70000E4A121D126882430C4B1B1D1A607047E0
:101A8000042808D14FF0E021096941F004014FF02A
:101A9000E022116107E04FF0E021096921F0040123
:101AA0004FF0E022116170470000FA050CED00E0F4
:101AB00000E400E080E100E080FFFF1F10B5044675
:101AC000FE48844209D10121480601F085FA00212F
:101AD0004FF0007001F080FA08E00121880601F063
:101AE0007BFA00214FF0806001F076FA10BD30B52E
:101AF000024600200023146824F0020414601468D5
:101B000044F00104146000E05B1C546804F001041C
:101B10001CB94FF6FF74A342F6D1546804F00104D7
:101B20000CB900206CE08C79012C04D1146844F0CD
:101B30008004146003E0146824F080041460CC79FD
:101B4000012C04D1146844F04004146003E01468CC
:101B500024F0400414600C7A012C04D1146844F081
:101B60002004146003E0146824F0200414604C7A0C
:101B7000012C04D1146844F01004146003E01468CC
:101B800024F0100414608C7A012C04D1146844F001
:101B90000804146003E0146824F008041460CC7A8C
:101BA000012C04D1146844F00404146003E01468A8
:101BB00024F0040414608C78A407CD7844EA05640A
:101BC0000D7944EA05444D7944EA05540D886D1EAB
:101BD0002C43D461146824F001041460002300E055
:101BE0005B1C546804F001041CB14FF6FF74A3425F
:101BF000F6D1546804F001040CB1002000E001208B
:101C000030BD10B50021837A012202FA03F1AC4AFB
:101C1000126842F00102AA4B1A60A94A1C321268EB
:101C20008A43A74B1C331A60027BCAB9A44A0C3200
:101C300012688A43A24B0C331A604288C38842EA76
:101C400003439F4A4032847A42F8343002888388C2
:101C500042EA03439A4A4032847A02EBC402536058
:101C6000027B012A19D1964A0C3212680A43944B1E
:101C70000C331A604288038842EA0343904A403298
:101C8000847A42F83430C288838842EA03438C4A1B
:101C90004032847A02EBC4025360C27A3AB9884A6D
:101CA000121D12688A43864B1B1D1A6006E0844A87
:101CB000121D12680A43824B1B1D1A60028932B939
:101CC0007F4A143212688A437D4B14331A600289AA
:101CD000012A06D17A4A143212680A43784B143327
:101CE0001A60427B012A06D1754A1C3212680A43E7
:101CF000734B1C331A60724A126822F00102704B57
:101D00001A6010BD00218171C1710172417281722E
:101D1000C1728170C17003210171022141710121E1
:101D2000018070476649096841F00101644A116009
:101D30001146096843F60E729143614A11601146DB
:101D4000096841EA002111601146096821F001018A
:101D50001160704721B1026842F48032026003E0F2
:101D6000026822F4803202607047E1B1026842F0FA
:101D7000800202604FF4C272125842F480734FF432
:101D8000C27213504FF4CA72125842F480734FF467
:101D9000CA7213504FF4D272125842F480734FF447
:101DA000D27213501BE0026822F0800202604FF4EE
:101DB000C272125822F480734FF4C27213504FF45F
:101DC000CA72125822F480734FF4CA7213504FF43F
:101DD000D272125822F480734FF4D27213507047AB
:101DE00010B502460020936803F08063B3F1806F62
:101DF00000D110E0936803F00063B3F1006F01D1EC
:101E0000012008E0936803F08053B3F1805F01D1B3
:101E1000022000E00420042879D002F5C07303EB0F
:101E200000131B6803F0010402F5C07303EB0013F9
:101E30001C600B7A7BB94B7A0C8843EA445302F559
:101E4000C07404EB00142468234302F5C07404EB4F
:101E50000014236010E00B7A4C6843EAC4034C7A08
:101E6000234302F5C07404EB00142468234302F5F5
:101E7000C07404EB001423608B7A03F00F038B72A1
:101E800002F5C07303EB00135B6823F00F0402F547
:101E9000C07303EB00135C6002F5C07303EB001327
:101EA0005B688C7A234302F5C07404EB0014636012
:101EB0008B7B1C064B7B44EA034403E00064004038
:101EC000006600400B7B44EA0323CC7A234302F5EF
:101ED000C07404EB0014A3608B7C1C064B7C44EAAA
:101EE00003440B7C44EA0323CC7B234302F5C074F8
:101EF00004EB0014E36002F5C07303EB00131B68EE
:101F000043F0010402F5C07303EB00131C6010BD25
:101F100010B50246002321B1012907D002290FD1B3
:101F200009E09068F94C00EA04030BE09068F84C73
:101F300000EA040306E09068F64C00EA040301E0BE
:101F4000002300BF00BFF44C181BA34216D007DCCF
:101F500083B16FF08060184470B1022818D111E08D
:101F6000B0F5007F10D0ED4C204448B1B0F5003FF3
:101F70000ED10BE002230DE000230BE0002309E06B
:101F8000002307E0012305E0012303E0012301E032
:101F9000002300BF00BFD8B210BD21B1012907D076
:101FA00002290FD109E0826842F0800282600AE0D3
:101FB000826842F40042826005E0826842F40002D6
:101FC000826000E000BF00BF704710B500F5D87315
:101FD00003EB01131B6803F004031372137A53B964
:101FE00000F5D87303EB01131B6840F2FF7404EA99
:101FF0005353136009E000F5D87303EB01131B681A
:102000006FF0604404EAD303536000F5D87303EB28
:1020100001131B6803F00203537200F5D87303EB3E
:1020200001135B6803F00F03937200F5D87303EBA1
:1020300001135B681B0AD37400F5D87303EB01131B
:102040009B68D37200F5D87303EB01139B681C0ADD
:10205000147300F5D87303EB01139B681C0C5473C5
:1020600000F5D87303EB01139B681B0E937300F507
:10207000D87303EB0113DB68D37300F5D87303EB5C
:102080000113DB681C0A147400F5D87303EB011309
:10209000DB681C0C547400F5D87303EB0113DB6888
:1020A0001B0E937421B9C36843F02003C36003E09F
:1020B000036943F02003036110BD21B9C26842F0F7
:1020C0002002C26003E0026942F020020261704710
:1020D0000246002019B9D36803F0030006E0012985
:1020E00003D1136903F0030000E00020704710B52E
:1020F00002460B4600204FF6FF71BBB9146824F06E
:10210000020444F00104146000E0491E546804F025
:102110000304012C01D00029F7D1546804F0030412
:10212000012C01D0002032E0012030E0012B13D13E
:10213000146824F00304146000E0491E546804F09D
:1021400003040CB10029F8D1546804F003040CB165
:1021500000201CE001201AE0022B17D1146824F0A3
:10216000010444F00204146000E0491E546804F0C5
:102170000304022C01D00029F7D1546804F00304B1
:10218000022C01D0002002E0012000E0002010BD60
:10219000014600200A6822F0010242F002020A60B1
:1021A0004A6802F00302022A00D10120704701466A
:1021B0004FF6FF7200200B6823F002030B6000E073
:1021C000521E4B6803F00203022B01D1002AF7D103
:1021D0004B6803F00203022B00D001207047014638
:1021E00000208A6902F070007047014600208A6969
:1021F000100E7047014600208A69C2F307407047FD
:102200001AB143690B43436102E043698B43436165
:10221000704710B50246002001F4700343B1936982
:10222000C1F3130423400BB101202DE000202BE06B
:1022300001F0807343B15368C1F3130423400BB121
:10224000012021E000201FE001F0006343B193680A
:10225000C1F3130423400BB1012015E0002013E06B
:1022600001F0007343B1D368C1F3130423400BB1F1
:10227000012009E0002007E01369C1F313042340A3
:102280000BB1012000E0002010BD0022244B994238
:1022900002D10023836111E0C1F3130201F0007346
:1022A0000BB1C2600AE001F080630BB1026105E08E
:1022B00001F000630BB1826000E0426070470246AB
:1022C000002002EA01030BB1012000E0002070476A
:1022D00070B504460D46002660692840002872D07B
:1022E000B5F5807F69D01DDC082D42D006DC012DBC
:1022F0002DD0022D31D0042D7FD134E0102D3ED0D1
:10230000202D42D0402D78D145E00000030000048C
:102310000003000800000310000100080001FFF79F
:102320007000F030B5F5004F61D009DCB5F5007FE5
:102330004AD0B5F5806F4DD0B5F5006F5DD150E056
:10234000B5F5803F2DD0B5F5003F56D12FE0A06800
:102350005549FFF7B4FF064651E0E0680321FFF757
:10236000AEFF06464BE0E0680821FFF7A8FF0646EF
:1023700045E0E0681021FFF7A2FF06463FE0206934
:102380000321FFF79CFF064639E020690821FFF78B
:1023900096FF064633E020691021FFF790FF0646BE
:1023A0002DE060680821FFF78AFF064627E0606895
:1023B0001021FFF784FF064621E0A0690121FFF705
:1023C0007EFF06461BE01BE0A0690221FFF777FFB6
:1023D000064614E0A0690421FFF771FF06460EE0EF
:1023E0000BE0A0697021FFF76AFF064607E060680E
:1023F0000421FFF764FF064601E0002600BF00E06D
:102400000026304670BDB1F5007F3AD00FDC2029A0
:1024100028D006DC01291CD004291DD0082940D170
:102420001DE0402921D0B1F5807F3AD126E0B1F5F9
:10243000004F31D006DCB1F5806F25D0B1F5006FCB
:102440002FD124E0B1F5803F12D0B1F5003F28D163
:1024500011E0154A826025E00822C26022E01022C5
:10246000C2601FE0082202611CE01022026119E034
:102470000822426016E01022426013E0042242600B
:1024800010E0042242600DE0042242600AE00022D3
:1024900082610422426005E00022826104224260DF
:1024A00000E000BF00BF704701010100016821F09A
:1024B000010101600021016041608160C160016132
:1024C00021214161DB49884204D13D21D94A103A9A
:1024D00091608CE0D7491831884205D14FF474617E
:1024E000D44A103A916082E0D2493031884205D115
:1024F0004FF47411CF4A103A916078E0CD494831D9
:10250000884205D14FF07461CA4A103A91606EE07A
:10251000C8496031884204D1C749C64A103AD160DF
:1025200065E0C4497831884204D1C449C14A103AAF
:10253000D1605CE0BF499031884204D1C049BD4AB6
:10254000103AD16053E0BB49A831884205D14FF021
:102550003D51B84A103AD16049E0BA49884204D1A5
:102560003D21B84A083A116041E0B6491831884225
:1025700005D14FF47461B34A083A116037E0B149AC
:102580003031884205D14FF47411AE4A083A1160D7
:102590002DE0AC494831884205D14FF07461A94A19
:1025A000083A116023E0A7496031884204D1A2496A
:1025B000A44A121F11601AE0A2497831884204D15E
:1025C0009E49A04A121F116011E09E499031884235
:1025D00004D19B499B4A121F116008E09949A83118
:1025E000884204D14FF03D51964A121F1160704746
:1025F00010B500220268944B1A40CC680B68234344
:102600004C6923438C692343CC6923430C6A2343DD
:102610004C6A23438C6A23434C6B23438C6B2343C8
:102620001A430260426922F00702D1E90B342343C6
:102630001A4342610B6943604B6883608B68C360D7
:1026400010BD0021016041608160C1600161416194
:102650008161C161016241628162C1620163416362
:102660008163704721B1026842F00102026003E019
:10267000026822F001020260704721B1026842F450
:102680000042026003E0026822F4004202607047E8
:1026900021B1026842F02002026003E0026822F0E9
:1026A000200202607047416070470146486880B26E
:1026B000704722B1036843F40023036003E003681A
:1026C00023F4002303600161704721B1026842F4E2
:1026D0008022026003E0026822F4802202607047D8
:1026E0000AB1016100E0C1607047014600200A683C
:1026F00002F400220AB1012000E0002070470146E8
:1027000000200A6802F001020AB1012000E0002066
:102710007047014600204A6902F03800704730B522
:1027200003460A4600200024464DAB4202D24149EE
:10273000103901E04349103902F000550DB14C68E1
:1027400000E00C68414D2C4004EA02050DB1012067
:1027500000E0002030BD02463A4B9A4202D2354892
:10276000103801E03748103801F000531BB1374BE7
:102770000B40C36002E0354B0B408360704710B5DF
:1027800001F080034BB122B1436943F08003436100
:1027900003E0436923F08003436180290BD02AB111
:1027A000036801F01E042343036004E0036801F0A2
:1027B0001E04A343036010BD70B502460020002430
:1027C0000025204EB24202D21A4B103B01E01D4BB5
:1027D000103B1F4E0E4036B11E2606EAD124166865
:1027E00006EA040502E0566906F0800501F000568D
:1027F0000EB15C6800E01C68144E344004EA010627
:1028000016B10DB1012000E0002070BD02460D4B55
:102810009A4202D20748103801E00A48103801F005
:1028200000531BB1094B0B40C36002E0074B0B4048
:1028300083607047106002403D000020400F002080
:1028400000003D20106402403F801CF07D0F7D0F92
:102850003C0F3C0F10B504469848844208D1012132
:10286000084600F086FB0021012000F082FB76E0A4
:102870009348844208D10121022000F07AFB002114
:10288000022000F076FB6AE08E48844208D10121E4
:10289000042000F06EFB0021042000F06AFB5EE0E3
:1028A0008948844208D10121082000F062FB002100
:1028B000082000F05EFB52E08448844208D10121E8
:1028C000102000F056FB0021102000F052FB46E0E3
:1028D0007F48844208D10121202000F04AFB0021DA
:1028E000202000F046FB3AE07A48844208D10121DA
:1028F000402000F03EFB0021402000F03AFB2EE09B
:102900007548844208D10121802000F032FB00216B
:10291000802000F02EFB22E07048844208D1012183
:10292000801500F026FB0021A01500F022FB16E028
:102930006B48844208D10121401500F01AFB0021A8
:10294000601500F016FB0AE06648844207D10121B9
:10295000001500F00EFB0021201500F00AFB10BD51
:10296000F0B50A4600210023002400BF3DE0012508
:1029700005FA01F3156805EA03049C4234D10568A1
:102980004F000326BE40B543056015794E00B540A3
:102990000668354305601579012D02D01579022DA1
:1029A00016D185684F000326BE40B5438560557932
:1029B0004E00B540866835438560456801268E40E7
:1029C000B5434560456896798E40B6B2354345605B
:1029D000C5684F000326BE40B543C560D5794E009B
:1029E000B540C6683543C560491C1029BFD3F0BD4A
:1029F0004FF6FF7101600021017141718171C17158
:102A0000704708B54FF480320092009A0A43009252
:102A1000009AC261C161009AC261C2690092C26932
:102A2000009208BD0246002013690B400BB1012043
:102A300000E0002070470146086980B270470246F6
:102A4000002053690B400BB1012000E000207047CB
:102A50000146486980B270470183704741837047DF
:102A60000AB1018300E041837047416170474269C8
:102A70004A4042617047F0B5002300244D07ED0E37
:102A800002FA05F3CE1000F1200555F826504E0746
:102A9000F70E0F26BE40B543CF1000F1200646F8D2
:102AA0002750CE1000F1200555F8265045EA0304C2
:102AB000CE1000F1200545F82640F0BD0000024090
:102AC0000004024000080240000C024000100240D6
:102AD0000014024000180240001C02400020024086
:102AE0000024024000280240F948006840F001003C
:102AF000F74908600020F64908310860F44800688A
:102B0000F4490840F2490860F348091D0860F34899
:102B1000EF4984310860F0481038091D0860EC481E
:102B2000006820F48020EA4908600020E8490C3160
:102B30000860E7498C31086070470021E44A921C24
:102B4000117011460870704710B50146002200232D
:102B500000204A11012A02D1DD4C236808E0022A34
:102B600003D1DB4C7034236802E0D94C7434236801
:102B700001F01F02012494401C400CB1012000E030
:102B8000002010BD38B5002000900024002500BFB3
:102B90003120FFF7D9FF05460098401C00900098AF
:102BA000B0F5A04F01D0002DF2D03120FFF7CCFFBF
:102BB00008B1012400E00024204638BD0146002071
:102BC000C34A106820F0F80040EAC1001060704766
:102BD000C349086070470021BD4A703211701170FE
:102BE000012802D004280AD104E00121B84A703239
:102BF000117005E00521B64A7032117000E000BF87
:102C000000BF7047B7490860704770B5049C41EA3F
:102C100082150126C6EB530645EA0645054345EAFB
:102C20000465AB4E361D356070BDAD490866704712
:102C3000820142EA0172A64B84331A607047A849A8
:102C40008866704710B5830143EA016343EA027363
:102C50009F4C8834236010BDA14908677047A04984
:102C6000C864704702460020994B0833186820F06A
:102C7000EC6042EA01031843954B08331860704733
:102C800002460020924B0833186820F0784042EA50
:102C9000010318438E4B083318607047014600202B
:102CA0008B4A0832106820F0030008431060704718
:102CB00087480830006800F00C007047014600208B
:102CC000834A0832106820F0F00008431060704713
:102CD000014600207E4A0832106820F4E050084384
:102CE0001060704701460020794A0832106820F4CD
:102CF000604040EAC10010607047F0B5002100223A
:102D00000024022500260223714F08373F6807F090
:102D10000C0121B1042905D0082937D105E0724FF3
:102D2000076036E0714F076033E0694F3F1D3F6831
:102D3000C7F38056664F3F1D3F6807F03F036EB1F3
:102D40006A4FB7FBF3F7DFF888C10CF1040CDCF82D
:102D500000C0CCF3881C07FB0CF40CE0624FB7FBFF
:102D6000F3F7DFF86CC10CF1040CDCF800C0CCF315
:102D7000881C07FB0CF4564F3F1D3F68C7F3014703
:102D80007F1C7D00B4FBF5F7076002E0564F07603B
:102D900000BF00BF4E4F08373F6807F0F001090938
:102DA000534F7A5C0768D7404760494F08373F6800
:102DB00007F4E051890A4E4F7A5C4768D740876034
:102DC000434F08373F6807F46041490B484F7A5C2E
:102DD0004768D740C760F0BD002100F44072B2F5EB
:102DE000407F0AD13A4A0832116821F4F811414A69
:102DF00002401143364A08321160354A7032126877
:102E0000C0F30B031A43324B70331A6070473549D5
:102E10004439086070473349403908607047364983
:102E20000860704701460020294A8C32106820F063
:102E30001F004A1E1043264A8C321060704701461C
:102E40000020234A8C32106820F4F8504A1E40EAD1
:102E500002201F4A8C3210607047014600201C4A35
:102E60008C32106820F4401008431060704701460F
:102E70000020174A8C32106820F44000084310608C
:102E8000704701460020124A8C32106820F440300E
:102E900008431060704719490860704739B10C4AFF
:102EA0003032126802430A4B30331A6006E0084A97
:102EB000303212688243064B30331A607047F9B1E2
:102EC000034A343212680243014B34331A601CE067
:102ED00000380240FFFFF6EA1030002400300020E6
:102EE00000004742800E47420024F40040787D01F4
:102EF0007D000020FFFCFF0F5C014742E0114742CC
:102F00008F4A126882438E4B1A60704739B18C4ADF
:102F1000121D126802438A4B1B1D1A6006E0884A84
:102F2000121D12688243864B1B1D1A60704739B10F
:102F3000834A0C3212680243814B0C331A6006E05C
:102F40007F4A0C32126882437D4B0C331A60704703
:102F500039B17B4A103212680243794B10331A6040
:102F600006E0774A103212688243754B10331A60BC
:102F7000704739B1724A243A12680243704B243BBD
:102F80001A6006E06E4A243A126882436C4B243B76
:102F90001A60704739B16A4A203A12680243684B96
:102FA000203B1A6006E0664A203A12688243644B6E
:102FB000203B1A60704739B1614A1C3A12680243DB
:102FC0005F4B1C3B1A6006E05D4A1C3A1268824364
:102FD0005B4B1C3B1A60704739B1594A143A12686E
:102FE0000243574B143B1A6006E0554A143A1268E4
:102FF0008243534B143B1A60704739B1504A103A20
:10300000126802434E4B103B1A6006E04C4A103ADD
:10301000126882434A4B103B1A60704739B1484AE4
:103020001C3212680243464B1C331A6006E0444AC5
:103030001C3212688243424B1C331A60704739B10C
:103040003F4A2032126802433D4B20331A6006E0AB
:103050003B4A203212688243394B20331A60704752
:1030600039B1374A243212680243354B24331A608F
:1030700006E0334A243212688243314B24331A600B
:10308000704739B12E4A2C32126802432C4B2C3334
:103090001A6006E02A4A2C3212688243284B2C33ED
:1030A0001A60704739B1264A303212680243244B05
:1030B00030331A6006E0224A303212688243204BD5
:1030C00030331A607047012808D11D493C31096826
:1030D00041F008011A4A3C32116007E018493C31BE
:1030E000096821F00801164A3C321160704739B175
:1030F000134A273A12780243114B273B1A7006E015
:103100000F4A273A127882430D4B273B1A707047BB
:103110000B484030006840F0807009494031086039
:10312000704701460020064A283A12680A400AB150
:10313000012000E0002070470149263908707047DF
:103140003438024010B50446FA48844208D10121BF
:103150001020FFF752FF00211020FFF74EFF57E02D
:10316000F548844209D101214804FFF735FF0021C9
:103170004FF40030FFF730FF4AE0F048844209D1B5
:1031800001218804FFF728FF00214FF48020FFF77A
:1031900023FF3DE0EA48844209D10121C804FFF73A
:1031A0001BFF00214FF40020FFF716FF30E0E54839
:1031B000844209D101210805FFF70EFF00214FF4D9
:1031C0008010FFF709FF23E0DF48844208D1012186
:1031D0002020FFF712FF00212020FFF70EFF17E04D
:1031E000DA48844209D101218807FFF7F5FE002162
:1031F0004FF08040FFF7F0FE0AE0D548844207D147
:1032000001214005FFF7E8FE00216005FFF7E4FE1D
:1032100010BD2DE9FF4705460E460024A14600BF1C
:10322000A046B08900B100BF2C8A24F44054F08835
:1032300004432C82AC8941F20C608443B08831890C
:103240000843718908430443AC81AC8A24F4407478
:10325000B0890443AC826846FFF74FFDB54885420C
:1032600002D0B948854202D1DDF80C9001E0DDF8CA
:103270000890A88900F4004040B109EBC90000EBB8
:10328000091031684900B0FBF1F707E009EBC9000C
:1032900000EB091031688900B0FBF1F76420B7FB3F
:1032A000F0F004012009642101FB1078A88900F4E2
:1032B000004040B1322000EBC800B0FBF1F000F05C
:1032C0000700044308E0322000EB08106421B0FB43
:1032D000F1F000F00F0004432C81BDE8FF874FF4AC
:1032E0001651016000218180C18001810C21418142
:1032F00000218181704710B502460020108A20F419
:1033000070600B884C8823438C882343CC882343EC
:103310001843108210BD0021018041808180C1804E
:10332000704721B1828942F40052828104E082898F
:103330004DF6FF731A4082817047028B02F47F4280
:103340000283028B0A430283704721B1828942F4CF
:103350000042828103E08289C2F30E0282817047BB
:1033600021B1828A42F40062828204E0828A4FF2B2
:10337000FF731A4082827047C1F30802828070474F
:1033800001468888C0F308007047028A4FF6F07340
:103390001A400282028A0A430282704721B182895E
:1033A00042F00202828104E082894FF6FD731A40E6
:1033B0008281704782894FF2FF731A40828182892D
:1033C0000A4382817047028A4FF6DF731A400282F5
:1033D000028A0A430282704721B1028A42F4804283
:1033E000028204E0028A4BF6FF731A4002827047A1
:1033F000818941F001018181704721B1828A42F0C7
:103400000802828204E0828A4FF6F7731A408282B1
:103410007047028BD2B20283028B42EA01220283FE
:10342000704721B1828A42F02002828204E0828ABF
:103430004FF6DF731A408282704721B1828A42F0D0
:103440001002828204E0828A4FF6EF731A40828271
:103450007047828A4FF6FB731A408282828A0A433F
:103460008282704721B1828A42F00202828204E0A5
:10347000828A4FF6FD731A40828270471AB1838A9E
:103480000B43838202E0838A8B4383827047F0B5CB
:103490000346002400260025002040F66A17B942A2
:1034A00000D100BF1846C1F3421401F01F060127E6
:1034B00007FA06F5012C01D10C3004E0022C01D1F1
:1034C000103000E014301AB107682F43076002E0A3
:1034D0000768AF430760F0BD02460020B1F5007FEA
:1034E00000D100BF13880B400BB1012000E0002089
:1034F000704701F40072B2F5007F00D100BFCA43EB
:103500000280704770B50246002400230025002089
:1035100040F66A16B14200D100BFC1F3421501F076
:103520001F03012606FA03F3012D13D196893340B8
:1035300017E0000000100140004400400048004037
:10354000004C004000500040001401400078004052
:10355000007C0040022D02D1168A334001E0968A99
:1035600033400C12012606FA04F41688344013B1D5
:103570000CB1012000E0002070BD10B50022002336
:1035800040F66A14A14200D100BF0A1201249440FF
:10359000A3B2DC43048010BD10B5002400BF00BFFF
:1035A00000F0A2FA044600BF00BF48480078401C63
:1035B0004649087000BF00BF204600F099FA00BFDE
:1035C00000BF07F059F801F0ABFF10BD70B504461D
:1035D0006FF00400FEF754FA2046E11704EB517136
:1035E000C1F3C7013A4A1170E11704EB5171CD10D4
:1035F000384800683849B1FBF0F045433548006869
:103600004FF47A71B1FBF0F0344908804FF0E020BC
:10361000006940F002004FF0E02108610846456172
:10362000006940F00100086170BD2DE9F8430746CC
:1036300000264FF0E020D0F814902548007807FBD2
:1036400000F800BF684602F014F84FF0E0208569EA
:1036500011E04FF0E0208469AC420CD0AC4202D2C1
:10366000281B064403E0A9EB040028440644254631
:10367000464500D300E0ECE700BF684602F043F89F
:10368000BDE8F88338B5044615480078012816D1FE
:103690000E48007898B911480088844208DB0F482A
:1036A000008894FBF0F56A460821284606F0E4FD00
:1036B0000A48008894FBF0F100FB114084B24FF4FB
:1036C0007A7104FB01F0FFF7B0FF38BDC4000020A1
:1036D0008E000020D4BA000840420F009000002065
:1036E000C5000020014600BF704700BF2F4A128866
:1036F00002F04002002AF9D0C2B22C4B9A807047E7
:1037000010B588B0044601210846FFF7C7FB012128
:103710001020FFF71DFC072209212548FFF7ABF910
:1037200007220A212248FFF7A6F94FF4C06006904D
:1037300002208DF81C008DF81D0000208DF81E0061
:1037400001208DF81F0006A91948FFF709F9029416
:103750000020ADF80C00ADF80E00ADF81000ADF88B
:1037600014000C20ADF8120002A91048FFF751FD1B
:1037700001210E48FFF7D5FD40210C48FFF7B9FEA7
:10378000012240F225510948FFF781FE25208DF8DE
:10379000040003208DF805008DF8060001208DF847
:1037A000070001A8FEF71FF908B010BD0010014086
:1037B000000002401FB56846FFF79FFA019804B069
:1037C00010BD10B5FFF7F6FF04461848006840F03A
:1037D0008070164908600020154948600846006856
:1037E00040F001000860204600F0B7F810BD104915
:1037F000486870472DE9F0478246FFF7DBFF4FF03E
:10380000000980460B4A00234046494607F019FE4E
:10381000064632460B465046002107F012FE04468B
:103820000D4620462946BDE8F0870000FCED00E08B
:10383000001000E040420F0010B5002400BF00BFA0
:1038400000F052F9044600BF00BF1021A14800F06B
:10385000D2FA00BF00BF204600F04AF900BF00BF07
:1038600010BD10B5FFF7E8FF10BD10B500209A4954
:103870000860FFF7A6FF10BD10B5FFF7F6FFFFF7D2
:10388000F0FF10BD00BFFEE770B505460C460026F0
:1038900014B900BFFFF7F6FF15B90A20208070BDEC
:1038A00000BF00BF00F020F9064600BF00BF102295
:1038B0008849284600F056FF00BF00BF304600F0A0
:1038C00017F900BF00BF0020208000BFE7E72DE907
:1038D000F04105460C46002714B900BFFFF7D2FFA0
:1038E0001DB90A202080BDE8F0811021284600F093
:1038F00021FF0646102E15D200BF00BF00F0F4F8DD
:10390000074600BF00BF10222946724800F02AFF78
:1039100000BF00BF384600F0EBF800BF00BF00203A
:10392000208002E04FF47A70208000BFDBE710B502
:10393000FFF75DFF0446204610BD704700B5014605
:1039400011B900BFFFF79EFF634A106808B100225B
:1039500001E04FF4FA620A8000BD5F4908607047D9
:1039600070B50546284600F0CAF80446183C2046C3
:1039700070BD70B50546284600F0C1F80446103CFD
:10398000204670BD70B50546284600F0B8F80446DC
:1039900000BF204670BD30B502460B460024D2F170
:1039A000FF359C4126D24FF6FF74D2F1FF359C4182
:1039B0000FD26FF07F44D2F1FF359C4103D2190E34
:1039C000464C605C44E0190C444C645C04F1080013
:1039D0003EE0FF24D2F1FF359C4105D2190A3F4C4D
:1039E000645C04F1100033E019463C4C645C04F163
:1039F00018002DE04FF6FF750024AD1A9C4115D23A
:103A00006FF07F450024AD1A9C4107D2140E44EAA2
:103A10000321324C645C04F1200019E0140C44EAE8
:103A200003412E4C645C04F1280011E00024D2F123
:103A3000FF059C4107D2140A44EA0361274C645CE9
:103A400004F1300004E01146244C645C04F13800B9
:103A500030BD70B504460CB9082070BD204600F09A
:103A600051F805462846F8E770B504460CB9102011
:103A700070BD204600F046F805462846F8E770B5C8
:103A800004460CB9202070BD204600F03BF80546E6
:103A90002846F8E72DE9F04304460D46002184EA64
:103AA00001006940084302D14020BDE8F083E243B1
:103AB000E843521C40F1000102EA040601EA05074E
:103AC00030463946FFF767FF8046C8F13F09484650
:103AD000EBE70000A21A002094000020DCB80008E8
:103AE00072B6704762B67047EFF3108072B67047D7
:103AF00080F31088704730BF704720BF7047B0FA1E
:103B000080F0704790FAA0F0B0FA80F0704790FA19
:103B1000A0F070470146412903DB5A2901DC01224C
:103B200000E00022012A08D0612903DB7A2901DCA8
:103B3000012200E00022012A01D1012200E000223E
:103B4000104670470146412903DB5A2901DC012256
:103B500000E00022012A08D0612903DB7A2901DC78
:103B6000012200E00022012A01D1012200E000220E
:103B7000012A08D0302903DB392901DC012200E0C9
:103B80000022012A01D1012200E0002210467047E4
:103B90000146612903DB7A2901DC012200E00022D1
:103BA000104670470146412903DB5A2901DC0122F6
:103BB00000E00022104670470146302903DB392916
:103BC00001DC012200E00022104670470146302946
:103BD00003DB372901DC012200E000221046704798
:103BE0000146302901DB392907DD412901DB46295E
:103BF00003DD612903DB662901DC012200E00022EC
:103C0000104670470146202901D0092901D101221F
:103C100000E00022104670470146202909D00D29F6
:103C200007D00A2905D00C2903D0092901D00B2976
:103C300001D1012200E000221046704701462029F0
:103C400003DB7E2901DC012200E0002210467047E0
:103C50000146212903DB7E2901DC012200E000224C
:103C6000104670470146202903DB7E2901DC012232
:103C700000E00022012A35D1202909D00D2907D0E2
:103C80000A2905D00C2903D0092901D00B2901D11B
:103C9000012200E000222ABB412903DB5A2901DC72
:103CA000012200E00022012A08D0612903DB7A29E1
:103CB00001DC012200E00022012A01D1012200E002
:103CC0000022012A08D0302903DB392901DC012236
:103CD00000E00022012A01D1012200E000220AB9FD
:103CE000012200E000221046704701464AB2002A35
:103CF00001DB1F2901DD7F2901D1012200E0002223
:103D0000104670470146412903DB5A2901DC012294
:103D100000E00022012A02D101F1200200E00A465F
:103D2000D0B270470146612903DB7A2901DC012208
:103D300000E00022012A02D1A1F1200200E00A469F
:103D4000D0B27047F0B504460B462046FFF7EAFFB5
:103D500005461846FFF7E6FF0646B54201D10120A9
:103D600000E0002007463846F0BD0000FC48FD4951
:103D700001600146416000218160C16001614161D3
:103D80008161C16101620163C1624162F64981637F
:103D9000C1634FF48061016441640146F34A1160DC
:103DA00070472DE9F04105460B4694460027002454
:103DB00002E03F021F43641C042CFAD3604605F066
:103DC0000306294646B1344603E001F8013B401E94
:103DD000641C08B1042CF8D30A4601E080C2001F1D
:103DE0000428FBD2114602E001F8013B401E0028E6
:103DF000FAD1BDE8F08130B505460C4622460021D7
:103E00002846FFF7CEFF30BD2DE9F04F85B00746BD
:103E10008846914646463D46AE4207D94A46414607
:103E2000384601F01DF905B0BDE8F08F4C4607EBB0
:103E30000900451E08EB0900461EA81B04900498C3
:103E4000042834D305F00300029006F00301019129
:103E5000DDE90110884201D1012000E0002000903E
:103E60000098012823D10298032810D0029840B26C
:103E7000039008E016F8010905F80109641E03988B
:103E8000401E40B2039014B103980028F2DAA5F165
:103E9000030AA6F1030B04E05BF804094AF80409DD
:103EA000241F042CF8D20AF103050BF1030604E0E9
:103EB00016F8010905F80109641E002CF8D100BFAD
:103EC000B1E72DE9F84F80468946154615B901201E
:103ED000BDE8F88FB8F1000F01D10020F8E7B9F183
:103EE000000F01D10020F3E70124294608EB050269
:103EF00009EB050302F0030C03F0030BDC4501D1D1
:103F0000012000E0002000900098012829D1BCF198
:103F1000000F12D0E2460AE0521E5B1E107893F8A2
:103F200000E0704500D00024491EAAF1010A012CCE
:103F300003D111B1BAF1000FEED1012C11D1164607
:103F40001F4608E0361F3F1F3068D7F800E0704575
:103F500000D00024091F012C01D10429F2D23246DD
:103F60003B4608E0521E5B1E107893F800E0704557
:103F700000D00024491E012C01D10029F2D1204695
:103F8000A6E7F0B503460E461546D96BB1FBF5F032
:103F900005FB101CBCF1000F02D0A5EB0C0200E0E9
:103FA00000229419586CA04201D20020F0BD0F19D4
:103FB0001144DF63586C001B58640846F6E72DE98E
:103FC000F04106460F46B6FBF3FC03FB1C6109B14A
:103FD0005C1A00E00024B2FBF3FC03FB1C2109B1D6
:103FE0005D1A00E0002502EB0508A7F1010C08FBB3
:103FF0000C4C0CEB0200BDE8F0812DE9FE4F804631
:10400000894614461E46002000900CB901AC00BF42
:1040100000202060524F00BF00BFFFF765FD0090F9
:1040200000BF00BFF86B0290D7F844B04B46424641
:1040300001210298FFF7C3FF05465D450FD900BF78
:1040400000BF0098FFF754FD00BF00BFA5EB0B00B9
:10405000206042F2E27030800020BDE8FE8F4A46C8
:1040600041463846FFF78DFF8246BAF1000F0CD16A
:1040700000BF00BF0098FFF73BFD00BF00BF2560F9
:1040800042F2E27030800020E7E700BF00BF0098F6
:10409000FFF72EFD00BF00BF42F210703080504687
:1040A000DBE72DE9FC5F07460C46904600200090B8
:1040B00000BF00BFFFF718FD009000BF00BFD7F89A
:1040C0000490D9F8380008B1484600E024488246F8
:1040D000DAF84450DAF83CB000BF00BF0098FFF7B0
:1040E00007FD00BF00BF012C0AD9BBFBF4F004FBA5
:1040F00010B60EB1A01B00E00020019001982D1A0F
:1041000042F21070A8F800002846BDE8FC9F70B588
:1041100004460D462A4621461148FFF7C2FF0646CF
:10412000304670BD18B942F211720A807047104AC9
:104130000260002242608260C2600261426182616C
:10414000C2610262826242630263C262426282634D
:10415000C2630264426442F210720A8000BFE5E763
:10416000B41A002048454150FC1A00209800002055
:104170004E4F4E452DE9FF4F91B00446DDE92089B1
:1041800000200090B8F1000F02D10DF1180800BF17
:104190000020C8F8000049462046FFF7C3FFB9F8E1
:1041A000000042F21071884202D015B0BDE8F08FD5
:1041B000FE48006820B942F2E770A9F80000F4E771
:1041C000DFF8ECA30020059000BF00BFFFF78CFCD8
:1041D000009000BF00BF129880BB5546AB462E46EC
:1041E000DAF83C000D9004231A4614990D98FFF755
:1041F000E6FE049004990D9808440C90DDE91E2316
:1042000014990C98FFF7DBFE0390DDE903010844E5
:104210000590DAF844700598B8427DD900BF00BF18
:104220000098FFF765FC00BF00BF0598C01BC8F8E9
:10423000000042F2E270A9F80000B6E7FFE712982A
:104240000B90DDE912010844401E0A900025AB46A0
:10425000D64806683BE0B16B1298814205D1316CBB
:104260001398814201D1354633E0B06B0990316C2F
:10427000B06B0844401E0890DDE90901814200D27C
:1042800027E009990B98884203D8DDE90910884294
:104290000FD209990B98884203D308990A9888424B
:1042A00007D908990B9888420FD808990A9888422C
:1042B0000BD300BF00BF0098FFF71AFC00BF00BF80
:1042C00042F27F70A9F800006FE7B346F668002E4F
:1042D000C1D100BF45B925461298A0631298E0638A
:1042E0001398206413986064DAF83C000D9004235E
:1042F0001A4614990D98FFF762FE0490DAF844709C
:104300000498B84211D900BF00BF0098FFF7F0FB36
:1043100000BF00BF049800E024E0C01BC8F8000004
:1043200042F2E270A9F800003FE7E86B0C90DDE98B
:104330001E2314990C98FFF742FE03906F6C0398AC
:10434000B8420FD900BF00BF0098FFF7D1FB00BFF4
:1043500000BF0398C01BC8F8000042F2D870A9F84B
:10436000000022E71498800002900422504602992F
:10437000FFF707FE0F900F9830BBDAF8447000BFCC
:1043800000BF0098FFF7B4FB00BF00BF129858B9F8
:104390000598B84204D90598C01BC8F800000EE083
:1043A0000598C8F800000AE00298B84204D90298BB
:1043B000C01BC8F8000002E00298C8F8000042F2F2
:1043C000E270A9F80000F0E60020019034E02846F1
:1043D000DDE91E12FFF7D5FD0E900E9820BBE86BAD
:1043E0000C906F6C00BF00BF0098FFF781FB00BF0F
:1043F00000BF01991498401A0790DDE91E23079920
:104400000C98FFF7DCFD05900598B84204D9059893
:10441000C01BC8F8000002E00598C8F8000042F28E
:10442000D870A9F80000C0E6019ADDE90E0141F854
:1044300022000198401C0190149901988842C6D32B
:10444000A5420DD1C4F808B0E660BBF1000F02D060
:10445000CBF80C4001E0554804605EB1B46009E05F
:10446000686910902561109860616C61109808B1BE
:10447000109804614F48206065600C98A061039912
:104480000C980844401EE0610F9820620398A062D7
:104490001F9860631E9820631498E062149860620D
:1044A00000BF00BF0098FFF723FB00BF00BF42F230
:1044B0001070A9F8000000BF77E62DE9F04104462E
:1044C0000D46002700BF00BFFFF70EFB074600BFE9
:1044D00000BF666A00BF00BF3846FFF709FB00BF98
:1044E00000BF42F2107028803046BDE8F0812DE90F
:1044F000F041044688461546002700BF00BFFFF77D
:10450000F3FA074600BF00BF606A60B900BF00BF92
:104510003846FFF7EDFA00BF00BF42F2DE70288098
:104520000020BDE8F081E16A606A88420BD900BFD3
:1045300000BF3846FFF7DCFA00BF00BF42F29570BB
:1045400028800020EDE7606A401E6062D4E908011F
:1045500050F8216000BF00BF3846FFF7C9FA00BF1E
:1045600000BF42F2107028803046DAE72DE9F047AC
:1045700004460F4615464FF0000900BF00BFFFF785
:10458000B3FA814600BF00BFE06AC01B461EE06A66
:10459000B04213D800BF00BF4846FFF7A9FA00BFDA
:1045A00000BF42F295702880002005E098000020AE
:1045B000B41A0020504F4F4CBDE8F087606AB042FB
:1045C0000BD900BF00BF4846FFF792FA00BF00BFFB
:1045D00042F2957028800020E7E7206A50F8268094
:1045E00000BF00BF4846FFF783FA00BF00BF42F29A
:1045F000107028804046D8E72DE9F04704460E4663
:1046000017464FF0000A00BF00BFFFF76DFA824661
:1046100000BF00BFE16A606A88420BD300BF00BFE1
:104620005046FFF765FA00BF00BF42F2DD703880E8
:10463000BDE8F0874FF00008656A08E0206A50F88E
:104640002590B14502D14FF0010803E06D1CE06AEE
:10465000A842F3D800BFB8F1010F06D1D4E9080190
:1046600050F82100216A41F82500D4E9080140F8FA
:104670002160606A401C606200BF00BF5046FFF7C7
:1046800037FA00BF00BF42F21070388000BFCFE79A
:104690002DE9F84F04460F461646002000904FF0D3
:1046A000FF3B00BF00BFFFF71FFA009000BF00BF35
:1046B000E16A606A88420CD300BF00BF0098FFF730
:1046C00017FA00BF00BF42F2DD7030805846BDE8E7
:1046D000F88F4FF00009656A08E0206A50F82580DD
:1046E000B84502D14FF0010903E06D1CE06AA84211
:1046F000F3D800BFB9F1010F0FD1E06A401EA0EB63
:10470000050A00BF00BF0098FFF7F2F900BF00BF25
:1047100042F2107030805046D9E700BF00BF0098C9
:10472000FFF7E6F900BF00BF42F2887030805846BC
:10473000CDE7000010B502460B461146002001E00F
:10474000491C401C19B10C780CB19842F8D310BD2B
:1047500030B504464FF0FF312046FFF7EBFF05462A
:10476000284630BD70B504460D4616460CB90020EB
:1047700070BD0DB90020FBE721462A46002304E066
:1047800010780870491C521C5B1C21B11AB11078BA
:1047900008B1B342F4D301B10AB90020E8E7B3424B
:1047A00001D2002008702046E2E770B504460D46AD
:1047B0004FF0FF3229462046FFF7D4FF0646304629
:1047C00070BD70B503460C4615460BB9002070BD90
:1047D0000CB90020FBE70DB91846F8E7194600E0D0
:1047E000491C11B108780028FAD109B90020EEE778
:1047F0002246002604E010780870491C521C761CE2
:1048000021B11AB1107808B1AE42F4D301B10AB99E
:104810000020DCE7002008701846D8E770B5044691
:104820000D464FF0FF3229462046FFF7CAFF0646E5
:10483000304670BD2DE9F04305460B469446BCF169
:10484000000F02D10020BDE8F08335B90BB900207C
:10485000F9E7187842421046F5E713B92A7810466E
:10486000F1E729461C460F4626467F1C761C4FF072
:10487000000805E0491C641C7F1C761C08F1010837
:10488000087894F80090484505D1087818B117B118
:104890000EB1E045EED3E04501D10020D3E7087822
:1048A00094F80090484505D0087894F80090A0EB63
:1048B00009020BE0087808B9002207E02FB90EB909
:1048C000002203E03078424200E03A781046BAE72E
:1048D00070B504460D464FF0FF3229462046FFF7DB
:1048E000A9FF0646304670BD2DE9F74F82B08046DD
:1048F0000E46049818B9002005B0BDE8F08FB8F155
:10490000000F09D10EB90020F6E73078FFF7FAF969
:1049100007467C422046EFE73EB998F80000FFF7D3
:10492000F1F905462C462046E6E7C146B246C846A0
:10493000C3465646CDF804A0D8460BF1010B019EA4
:10494000701C0190C84699F80000FFF7DBF9054696
:1049500056469AF80000FFF7D5F907460020009068
:1049600015E009F101090AF1010A0BF1010B0198A7
:10497000401C01900098401C009099F80000FFF73F
:10498000C1F905469AF80000FFF7BCF90746BD4299
:104990000BD199F8000040B1BBF1000F05D0019890
:1049A00018B1049900988842DBD304990098884292
:1049B00001D10020A0E7BD4201D0EC1B16E00DB9EB
:1049C000002413E0BBF1000F0AD1019808B90024BC
:1049D0000CE001990878FFF795F907467C4205E05D
:1049E0009BF80000FFF78EF905462C46204683E72A
:1049F00070B504460D464FF0FF3229462046FFF7BA
:104A000073FF0646304670BD30B504460B4615466A
:104A10000CB9002030BD0BB90020FBE72146002275
:104A200001E0491C521C31B1087820B10878A84235
:104A300001D09A42F5D309B90020EBE79A4201D39D
:104A40000020E7E70878A84201D00020E2E7084606
:104A5000E0E770B505460C4622464FF0FF31284688
:104A6000FFF7D2FF0646304670BD2DE9F0430546FC
:104A70000E46174615B90020BDE8F0830EB9002098
:104A8000FAE72C46A6F1010949462046FFF752FEF7
:104A9000804644440CB90020EEE700E0641EAC42BE
:104AA00002D02078B842F9D12078B84201D0002055
:104AB000E2E72046E0E770B505460C4622464FF097
:104AC000FF312846FFF7D1FF0646304670BD70B56E
:104AD00004460D4616460CB9002070BD0BB90020E7
:104AE000FBE721461A4605E00878A84200D10E707F
:104AF000491C521E19B1087808B1002AF4D1204689
:104B0000EBE7F0B504460D4616464FF0FF3332464C
:104B100029462046FFF7DBFF07463846F0BD2DE962
:104B2000FF4F06460F4615461EB9002004B0BDE8EB
:104B3000F08F0FB90020F9E70DB90020F6E7681CE7
:104B400000B101E04FF0FF30039029463046FFF7F7
:104B5000F1FD804638460399FFF7ECFD04460CB999
:104B60003046E3E7444501D90020DFE706EB080BB8
:104B7000BBF1000F01D10020D8E707EB040BBBF11C
:104B8000000F01D10020D1E7A8EB040002904FF004
:104B900000090020019000BF06EB090000902246AA
:104BA00039460098FFF746FE8246BAF1000F01D160
:104BB000012000E00020019009F10109019810B9DD
:104BC00002988145E8D9BAF1000F01D00020ADE785
:104BD0000098ABE770B504460D464FF0FF3229460A
:104BE0002046FFF79CFF0646304670BD2DE9FF4F7B
:104BF0008DB00F4615461A9E1D9818B9002011B0A9
:104C0000BDE8F08F002003900490012F01DA01200D
:104C10000390022D01D3242D01D90120039096B3D6
:104C20003046FFF70BF802900298012802D00120CD
:104C3000039028E0302E26D0A6F13000C0B20790B5
:104C40001B98012804D0A6F14100C0B2069003E0F1
:104C5000A6F16100C0B206900A2D02D80798A842BA
:104C600009DB0A2D09D907980A2804D3A5F10A00FF
:104C70000699884201D9012000E00020059005989E
:104C8000012800D103901D9C0398002846D1DDF82F
:104C900034A0DDF834A0CDF830A001200B9007E05F
:104CA0000B98401CC0B20B900C98B0FBF5F00C9028
:104CB0000C98A842F4D21098012800D100E00020FE
:104CC00009900B9909980844B84225DC002001900E
:104CD0000B98B84201DA0B9800E038460A903EB1D2
:104CE000B8460A98391A0998081AC0B2089006E01E
:104CF000DDE90910084400F0FF080020089008983A
:104D0000002806DD302E01D1012000E000200490B3
:104D100004E00020049001E001200390039800B11A
:104D2000B84644441C9808B100202070641E4FF01F
:104D3000000941E00398A8BBBAF1000F02D1B9F114
:104D4000000F1CD1BAFBF5F005FB10A000F0FF0B23
:104D5000BBF10A0F04D20BF1300004F801090BE09B
:104D60001B98012804D00BF1370004F8010903E077
:104D70000BF1570004F80109BAFBF5FA1AE0109894
:104D8000012810D1049808B9019828B1049850B1AD
:104D9000A8F10100484506D12D2004F801090120A1
:104DA000019007E003E02EB104F8016902E03F2022
:104DB00004F8010909F10109C145BBD3039808B101
:104DC00000201CE71D981AE72DE9FF5F05460E46F7
:104DD00017461C46DDE90F9ADDF8388000233A4675
:104DE000314628468DE81007FFF700FF83465846F6
:104DF00004B0BDE8F09F2DE9FF4F85B00446894619
:104E00001F46DDE913AB002C02DA6542012601E002
:104E10002546002612983346CDE902ABCDE9007055
:104E200049462846079AFFF7E1FE8046404609B00A
:104E3000BDE8F08F2DE9FF4F8BB006468946154639
:104E4000B9F1000F02D10DF1240900BFC9F80060CB
:104E5000189810B907A8189000BF00211898017081
:104E60001EB900200FB0BDE8F08F012D01D0242D18
:104E700001D90020F6E734462078FEF7CDFE0390F6
:104E800004E0641C2078FEF7C7FE03900398012815
:104E9000F7D020782B2802D02D280BD103E0641CFA
:104EA0004FF0000B09E00E98012800D1641C4FF070
:104EB000010B02E04FF0000B00BF00BF0A9425B1C8
:104EC000082D1CD0102D36D11EE02078302814D1AA
:104ED000641C2078582802D078280BD100BF1025F8
:104EE00067783846FEF77CFE8246BAF1010F00D1A2
:104EF000641C01E0082500BF00E00A251CE02078C2
:104F0000302800D1641C17E02078302812D1641CAE
:104F10002078582802D078280AD100BF6778384610
:104F2000FEF75EFE8246BAF1010F00D1641C00E07C
:104F300000BF00BF00E000BF00BF4FF0000800202E
:104F40000290019040E027783846FEF7FBFD05907F
:104F50000598012836D13846FEF72EFE06900698B1
:104F6000012804D1A7F13000C0B208900FE0384604
:104F7000FEF70EFE04900498012804D1A7F1570013
:104F8000C0B2089003E0A7F13700C0B208900898BB
:104F9000A84214DA029880B9304850F825004045FC
:104FA00009D308FB05F8089880440898804504D286
:104FB0000120029001E001200290641C04E0012025
:104FC000019001E00120019001980028BBD00298D7
:104FD000012801D14FF0FF380A98844202D0C9F865
:104FE000004001E0C9F80060189880F800B0404621
:104FF00038E7F8B504460D4616460020034632460B
:10500000294600902046FFF715FF07463846F8BDB1
:105010002DE9FC4105460E46174601A801233A46F4
:10502000314600902846FFF705FF04469DF804002E
:1050300040B9B4F1004F02D36FF0004000E02046C9
:10504000804607E0B4F1004F02D34FF0004000E08B
:10505000604280464046BDE8FC810000E0B900089F
:10506000002800D17047002900D17047002A00D1E4
:1050700070472DE9F81F00F0030301F00304A34279
:1050800011D1C3F1040303F00303012B1DD3012A43
:1050900000D2F2E011F8014B00F8014BA3F101033B
:1050A000A2F10102F1E700F0010301F00104A342C3
:1050B00000D094E0012B44D311F8014B00F8014BD0
:1050C000A3F10103A2F10102F4E7B2F5B47F26D304
:1050D000B1E8F81FA0E8F81FB1E8F81FA0E8F81F32
:1050E000B1E8F81FA0E8F81FB1E8F81FA0E8F81F22
:1050F000B1E8F81FA0E8F81FB1E8F81FA0E8F81F12
:10510000B1E8F81FA0E8F81FB1E8F81FA0E8F81F01
:10511000B1E8F81FA0E8F81FA2F5B472D5E7282A75
:1051200006D3B1E8F81FA0E8F81FA2F12802F6E7BD
:10513000042A06D351F8043B40F8043BA2F10402D0
:10514000F6E7202A42D331F8023B20F8023B31F83F
:10515000023B20F8023B31F8023B20F8023B31F8D9
:10516000023B20F8023B31F8023B20F8023B31F8C9
:10517000023B20F8023B31F8023B20F8023B31F8B9
:10518000023B20F8023B31F8023B20F8023B31F8A9
:10519000023B20F8023B31F8023B20F8023B31F899
:1051A000023B20F8023B31F8023B20F8023B31F889
:1051B000023B20F8023B31F8023B20F8023B31F879
:1051C000023B20F8023BA2F12002BAE7022A06D3F2
:1051D00031F8023B20F8023BA2F10202F6E7102A66
:1051E00042D311F8013B00F8013B11F8013B00F8F4
:1051F000013B11F8013B00F8013B11F8013B00F8BD
:10520000013B11F8013B00F8013B11F8013B00F8AC
:10521000013B11F8013B00F8013B11F8013B00F89C
:10522000013B11F8013B00F8013B11F8013B00F88C
:10523000013B11F8013B00F8013B11F8013B00F87C
:10524000013B11F8013B00F8013B11F8013B00F86C
:10525000013B11F8013B00F8013B11F8013B00F85C
:10526000013BA2F11002BAE7012A06D311F8013B73
:1052700000F8013BA2F10102F6E7BDE8F81F704714
:105280001148124812481348134814481448154846
:105290001548164816481748174818481848194816
:1052A00019481A481A481B481B481C481C481D48E6
:1052B0001D481E481E481F481F48204820482148B6
:1052C0002148224800BF704714BB000874BA000888
:1052D00078BA00087CBA000880BA0008A0BA0008B2
:1052E000A4BA0008A8BA0008ACBA0008B0BA00080E
:1052F000B4BA0008B8BA0008BCBA0008C0BA0008BE
:10530000C4BA0008C8BA0008CCBA0008D0BA00086D
:10531000D4BA0008D8BA0008DCBA0008E0BA00081D
:10532000E4BA0008E8BA0008ECBA0008F0BA0008CD
:10533000F4BA0008F8BA0008FCBA000800BB00087C
:1053400004BB000808BB00080CBB000810BB000829
:10535000002400BF19E000BF00BFFEF7C5FB0446F4
:1053600000BF00BFFE480068401CFD490860FD48C2
:105370000068401CFB49086000BF00BF2046FEF7E4
:10538000B7FB00BF00BF05F087FDE4E710B58AB0AA
:1053900004460020F24908600B2000210591CDE968
:1053A000070406910846F0490968F04A1268F04B74
:1053B0001B68CDE90132CDE903103F200023AFF295
:1053C0006F02ECA10090F04803F09FFC0AB010BD02
:1053D00000210AE001EB4102EC4B03EB82000022CA
:1053E0000281026042604A1CD1B24029F2D3704768
:1053F00070B5044605F058FD0020E5490870E54900
:105400000870E5490870E5490860E5490860E54924
:105410000870E5490870E5490870E5490860E54904
:105420000860E5490860E548006858B1E448056847
:1054300045B1E248066803E0761E002028602D1D75
:10544000002EF9D10020DF490860DF490860DF49FC
:105450000860DF490860DF490860DF490860DF490C
:105460000860DF49087002F063F9FFF7B1FF2046DA
:1054700001F074FB208800B170BD204601F06DFC86
:10548000208800B1F8E7204601F091FC208800B1A7
:10549000F2E7204602F038F9208800B1ECE7204618
:1054A00002F0DFFC208800B1E6E7204603F04FF869
:1054B000208800B1E0E7204604F07AFC208800B1A3
:1054C000DAE72046FFF762FF208800B1D4E72046E4
:1054D00004F08BFD208800B1CEE7204603F0B3FA3C
:1054E000208800B1C8E7204605F032FC208800B1D2
:1054F000C2E700F0F3FCFFF7C3FE00BFBCE7A5481E
:105500000078012800D07047A1480078FA2800DB15
:10551000F9E79F480078401C9D49087000BFF2E7FA
:1055200010B500249B480078012800D010BD00BFB2
:10553000FEF7DAFA044600BF9548007828B900BFA4
:105540002046FEF7D5FA00BFF0E791480078401EEC
:105550008F49087008460078002805DD00BF204606
:10556000FEF7C6FA00BFE1E78B480078002805DDAA
:1055700000BF2046FEF7BCFA00BFD7E702F0E2F812
:10558000894908700846007800EB40007F4951F8CF
:1055900020008349086008460068804909688842FD
:1055A00005D100BF2046FEF7A3FA00BFBEE77C4846
:1055B0000068D0F89000401C79490968C1F8900053
:1055C00088480068401C8749086005F0FDFF00BF5F
:1055D0002046FEF78DFA00BF00BFA7E710B50024F4
:1055E0006B480078002800DD10BD6B48007800286B
:1055F00000DDF9E700BFFEF777FA044600BF02F0CE
:10560000A1F8694908700846007800EB40005F493E
:1056100051F8200062490860084600685F4909683F
:10562000884205D100BF2046FEF762FA00BFDBE7E3
:105630005B480068D0F89000401C59490968C1F8DF
:10564000900068480068401C6649086005F0B7FF94
:1056500000BF2046FEF74CFA00BF00BFC4E710B5FC
:105660004D480078012803D1FEF7C1F85049086081
:1056700010BD70B50446002545480078002803DDBC
:1056800046F66250208070BD42480078012803D061
:1056900045F689602080F6E73F480078FA2803DB6A
:1056A00045F209202080EEE700BF00BFFEF71CFA9C
:1056B000054600BF00BF38480078401C36490870D6
:1056C000FFF7CDFF00BF00BF2846FEF711FA00BF6D
:1056D00000BF0020208000BFD5E710B52E4800781D
:1056E00080B9FEF784F832490968441A31480068E5
:1056F000A04201D22F4804602F480068A04201D286
:105700002D48046010BD70B504460025204800787F
:10571000002803DD46F66550208070BD1D480078E6
:10572000012803D045F689602080F6E71A48007802
:1057300018B946F664502080EFE700BF00BFFEF7BF
:10574000D3F9054600BF00BF13480078401E124938
:1057500008700846007800284FDD00BF00BF43E016
:10576000C0000020080100207CBA000878BA0008B8
:1057700074BA000875432F4F532D49494920496495
:105780006C65205461736B004C3000201C3100208C
:10579000C4000020C5000020F800002048010020BF
:1057A0004C010020DE000020DF000020E00000208F
:1057B000EC000020F0000020F4000020A4BA000853
:1057C000A0BA0008A4000020A8000020AC0000201F
:1057D000B0000020B4000020B8000020BC00002071
:1057E000260100201C0100202846FEF781F900BF99
:1057F00000BF46F6635020808FE7FFF76EFF00BFC3
:1058000000BF2846FEF774F900BF00BFFFF7E6FEB1
:105810000020208000BF80E710B50446FE480078D5
:10582000E8B901F08FFFFD49087008460078FC498F
:105830000870FA48007800EB4000FA4951F820005F
:10584000F949086008460068F84908600120F249F3
:10585000087005F0A3FE43F69920208002E045F68B
:105860008A60208010BD01460020088047F25C60FD
:10587000704730B548B14568C1F8C05000F1080420
:10588000226893681D6AC56113E091F83450022DB7
:1058900002D0072D08D103E0E5A5C1F8C05007E00C
:1058A000E5A5C1F8C05003E0E6A5C1F8C05000BFAF
:1058B00000BF30BDF0B58E6896F8375007893FB904
:1058C0000127078100274F600F600160416023E0DE
:1058D00007897F1C0781026806E0946894F8377096
:1058E000AF4200DD02E05268002AF6D100BF32B9B3
:1058F00000274F6043680B60596041600CE01768F7
:105900002FB9116000270F604A60016004E013683E
:105910000B604A6059601160F0BD10B5C287016329
:1059200000230AE000244C600C600C614C610C8385
:10593000CC61886020315C1CA3B29342F2DB10BDC5
:105940002DE9F041054695F8370000EB4000B549D8
:1059500001EB80042F69EE6887B946B900202081E9
:105960002060606095F8370001F00EFF0EE020899E
:10597000401E208100203061266007E02089401E03
:105980002081FE600EB9676000E037610020286169
:10599000E860BDE8F08138B504460D4685B16B4638
:1059A00002222946204604F061FBBDF8000018B928
:1059B000032084F8360006E0022084F8360002E076
:1059C000022084F836002046FFF7BAFF38BD2DE9E3
:1059D000F04105460C4616461F469448006880F87C
:1059E000346000209149096881F8350039468F48B4
:1059F0000068FFF7D0FF6CB104F10808EC600122E9
:105A000029468A480068FFF788FF29464046FFF785
:105A100051FF06E0002085490968C8878349096865
:105A20000863824801682046FFF723FFBDE8F08144
:105A300010B50489012C03D100240460446011E0F6
:105A40000C6824B94A680024146002600AE04C68BB
:105A500024B90B6800245C60436003E00B684A686B
:105A60005A6013600489641E048100244C600C6039
:105A700010BD2DE9F0410446256BE68F0AE0D5F80C
:105A80000C8008F1080729463846FFF7D1FF20357A
:105A9000701E86B2002EF2DC0020E0872063BDE895
:105AA000F08130B50346086BCC8F08E0C5689D4295
:105AB00002D10361C26104E02030651EACB2002C4B
:105AC000F4DC00BF30BD10B590F8373003EB430372
:105AD000544C04EB83010B893BB901230B81002358
